:1000000014C023C022C021C020C01FC054C01DC0C6
:100010001CC01BC01AC019C018C017C016C015C01C
:1000200014C013C012C083C010C011241FBECFE57E
:10003000D2E0DEBFCDBF10E0A0E6B0E001C01D926F
:10004000A836B107E1F725D093C0DACF109265004A
:100050001092640083E090E09093610080936000D0
:1000600087E398E09093630080936200FFCF8FEF67
:100070008ABB87BB84BB81BB1BBA12BA80E189BF34
:1000800082E19AE79BBD8ABD1FBC8CE08EBD78944F
:100090000895EDDF109265001092640083E090E017
:1000A000909361008093600087E398E090936300F1
:1000B00080936200FFCF1F920F920FB60F92112410
:1000C0002F933F938F939F9320916400309165000D
:1000D0002F5F3F4F30936500209364008091600054
:1000E000909161008217930718F0D89A979A0BC0E5
:1000F00080916200909163008217930720F0D89856
:1001000082B38F7382BB80916200909163008217EB
:10011000930720F410926500109264009F918F91D4
:100120003F912F910F900FBE0F901F9018951F9227
:100130000F920FB60F9211240F900FBE0F901F90C9
:100140001895D89A979A0895D89882B38F7382BBDE
:1001500008955F9BFECF8CB108955D9BFECF8CB957
:10016000089589B990BD86E880BD88E18AB908956F
:04017000F894FFCF31
:00000001FF
